{
  "contractName": "Coin",
  "abi": [
    {
      "constant": true,
      "inputs": [],
      "name": "name",
      "outputs": [
        {
          "name": "",
          "type": "string"
        }
      ],
      "payable": false,
      "stateMutability": "view",
      "type": "function"
    },
    {
      "constant": true,
      "inputs": [],
      "name": "decimals",
      "outputs": [
        {
          "name": "",
          "type": "uint8"
        }
      ],
      "payable": false,
      "stateMutability": "view",
      "type": "function"
    },
    {
      "constant": true,
      "inputs": [],
      "name": "symbol",
      "outputs": [
        {
          "name": "",
          "type": "string"
        }
      ],
      "payable": false,
      "stateMutability": "view",
      "type": "function"
    },
    {
      "inputs": [
        {
          "name": "_name",
          "type": "string"
        },
        {
          "name": "_symbol",
          "type": "string"
        },
        {
          "name": "_decimals",
          "type": "uint8"
        },
        {
          "name": "_supply",
          "type": "uint256"
        }
      ],
      "payable": false,
      "stateMutability": "nonpayable",
      "type": "constructor"
    }
  ],
  "bytecode": "0x6060604052341561000f57600080fd5b60405161047838038061047883398101604052808051820191906020018051820191906020018051906020019091908051906020019091905050836000908051906020019061005f9291906100a2565b5082600190805190602001906100769291906100a2565b5081600260006101000a81548160ff021916908360ff1602179055508060038190555050505050610147565b828054600181600116156101000203166002900490600052602060002090601f016020900481019282601f106100e357805160ff1916838001178555610111565b82800160010185558215610111579182015b828111156101105782518255916020019190600101906100f5565b5b50905061011e9190610122565b5090565b61014491905b80821115610140576000816000905550600101610128565b5090565b90565b610322806101566000396000f300606060405260043610610057576000357c0100000000000000000000000000000000000000000000000000000000900463ffffffff16806306fdde031461005c578063313ce567146100ea57806395d89b4114610119575b600080fd5b341561006757600080fd5b61006f6101a7565b6040518080602001828103825283818151815260200191508051906020019080838360005b838110156100af578082015181840152602081019050610094565b50505050905090810190601f1680156100dc5780820380516001836020036101000a031916815260200191505b509250505060405180910390f35b34156100f557600080fd5b6100fd610245565b604051808260ff1660ff16815260200191505060405180910390f35b341561012457600080fd5b61012c610258565b6040518080602001828103825283818151815260200191508051906020019080838360005b8381101561016c578082015181840152602081019050610151565b50505050905090810190601f1680156101995780820380516001836020036101000a031916815260200191505b509250505060405180910390f35b60008054600181600116156101000203166002900480601f01602080910402602001604051908101604052809291908181526020018280546001816001161561010002031660029004801561023d5780601f106102125761010080835404028352916020019161023d565b820191906000526020600020905b81548152906001019060200180831161022057829003601f168201915b505050505081565b600260009054906101000a900460ff1681565b60018054600181600116156101000203166002900480601f0160208091040260200160405190810160405280929190818152602001828054600181600116156101000203166002900480156102ee5780601f106102c3576101008083540402835291602001916102ee565b820191906000526020600020905b8154815290600101906020018083116102d157829003601f168201915b5050505050815600a165627a7a723058202c2b4ac5e82e14b4d7e47b0de1ff0bcb1baa816c48c92eb2b610bea39a374dea0029",
  "source": "pragma solidity ^0.4.4;\n\n// import \"./ECR20Interface.sol\";\n\ncontract Coin {\n  string public name;\n  string public symbol;\n  uint8 public decimals;\n\n  uint supply;\n\n  function Coin(string _name, string _symbol, uint8 _decimals, uint _supply) public {\n    name = _name;\n    symbol = _symbol;\n    decimals = _decimals;\n    supply = _supply;\n  }\n}\n",
  "sourcePath": "C:\\Users\\Jozi\\Desktop\\CoinCreator\\contracts\\Coin.sol",
  "compiler": {
    "name": "solc",
    "version": "0.4.21+commit.dfe3193c.Emscripten.clang"
  },
  "schemaVersion": "2.0.0",
  "updatedAt": "2018-04-16T13:45:01.040Z"
}