{
  "contractName": "CoinFactory",
  "abi": [
    {
      "anonymous": false,
      "inputs": [
        {
          "indexed": false,
          "name": "contractAddress",
          "type": "address"
        },
        {
          "indexed": false,
          "name": "owner",
          "type": "address"
        }
      ],
      "name": "CoinCreated",
      "type": "event"
    },
    {
      "constant": false,
      "inputs": [
        {
          "name": "_name",
          "type": "string"
        },
        {
          "name": "_symbol",
          "type": "string"
        },
        {
          "name": "_decimals",
          "type": "uint8"
        },
        {
          "name": "_supply",
          "type": "uint256"
        }
      ],
      "name": "createCoin",
      "outputs": [
        {
          "name": "",
          "type": "address"
        }
      ],
      "payable": false,
      "stateMutability": "nonpayable",
      "type": "function"
    }
  ],
  "bytecode": "0x6060604052341561000f57600080fd5b6107a88061001e6000396000f300606060405260043610610041576000357c0100000000000000000000000000000000000000000000000000000000900463ffffffff168063f247adc014610046575b600080fd5b341561005157600080fd5b6100f9600480803590602001908201803590602001908080601f0160208091040260200160405190810160405280939291908181526020018383808284378201915050505050509190803590602001908201803590602001908080601f0160208091040260200160405190810160405280939291908181526020018383808284378201915050505050509190803560ff1690602001909190803590602001909190505061013b565b604051808273ffffffffffffffffffffffffffffffffffffffff1673ffffffffffffffffffffffffffffffffffffffff16815260200191505060405180910390f35b6000808585858561014a6102f4565b8080602001806020018560ff1660ff168152602001848152602001838103835287818151815260200191508051906020019080838360005b8381101561019d578082015181840152602081019050610182565b50505050905090810190601f1680156101ca5780820380516001836020036101000a031916815260200191505b50838103825286818151815260200191508051906020019080838360005b838110156102035780820151818401526020810190506101e8565b50505050905090810190601f1680156102305780820380516001836020036101000a031916815260200191505b509650505050505050604051809103906000f080151561024f57600080fd5b90507fb2a8ccdf6f0e7f6d60053758f833531b801fde403d60b972e83516d80b48c0ca8133604051808373ffffffffffffffffffffffffffffffffffffffff1673ffffffffffffffffffffffffffffffffffffffff1681526020018273ffffffffffffffffffffffffffffffffffffffff1673ffffffffffffffffffffffffffffffffffffffff1681526020019250505060405180910390a180915050949350505050565b604051610478806103058339019056006060604052341561000f57600080fd5b60405161047838038061047883398101604052808051820191906020018051820191906020018051906020019091908051906020019091905050836000908051906020019061005f9291906100a2565b5082600190805190602001906100769291906100a2565b5081600260006101000a81548160ff021916908360ff1602179055508060038190555050505050610147565b828054600181600116156101000203166002900490600052602060002090601f016020900481019282601f106100e357805160ff1916838001178555610111565b82800160010185558215610111579182015b828111156101105782518255916020019190600101906100f5565b5b50905061011e9190610122565b5090565b61014491905b80821115610140576000816000905550600101610128565b5090565b90565b610322806101566000396000f300606060405260043610610057576000357c0100000000000000000000000000000000000000000000000000000000900463ffffffff16806306fdde031461005c578063313ce567146100ea57806395d89b4114610119575b600080fd5b341561006757600080fd5b61006f6101a7565b6040518080602001828103825283818151815260200191508051906020019080838360005b838110156100af578082015181840152602081019050610094565b50505050905090810190601f1680156100dc5780820380516001836020036101000a031916815260200191505b509250505060405180910390f35b34156100f557600080fd5b6100fd610245565b604051808260ff1660ff16815260200191505060405180910390f35b341561012457600080fd5b61012c610258565b6040518080602001828103825283818151815260200191508051906020019080838360005b8381101561016c578082015181840152602081019050610151565b50505050905090810190601f1680156101995780820380516001836020036101000a031916815260200191505b509250505060405180910390f35b60008054600181600116156101000203166002900480601f01602080910402602001604051908101604052809291908181526020018280546001816001161561010002031660029004801561023d5780601f106102125761010080835404028352916020019161023d565b820191906000526020600020905b81548152906001019060200180831161022057829003601f168201915b505050505081565b600260009054906101000a900460ff1681565b60018054600181600116156101000203166002900480601f0160208091040260200160405190810160405280929190818152602001828054600181600116156101000203166002900480156102ee5780601f106102c3576101008083540402835291602001916102ee565b820191906000526020600020905b8154815290600101906020018083116102d157829003601f168201915b5050505050815600a165627a7a723058202c2b4ac5e82e14b4d7e47b0de1ff0bcb1baa816c48c92eb2b610bea39a374dea0029a165627a7a72305820a029d1ae761d3a97587011a0083f6d04a0e5fc4ece48d01457f8e58629592b970029",
  "source": "pragma solidity ^0.4.4;\n\nimport \"./Coin.sol\";\n\ncontract CoinFactory {\n  event CoinCreated(address contractAddress, address owner);\n\n  function createCoin(string _name, string _symbol, uint8 _decimals, uint _supply) public returns (address){\n    Coin c = new Coin(_name, _symbol, _decimals, _supply);\n    emit CoinCreated(c, msg.sender);\n    \n    return c;\n  }\n}\n",
  "sourcePath": "C:\\Users\\Jozi\\Desktop\\CoinCreator\\contracts\\CoinFactory.sol",
  "compiler": {
    "name": "solc",
    "version": "0.4.21+commit.dfe3193c.Emscripten.clang"
  },
  "schemaVersion": "2.0.0",
  "updatedAt": "2018-04-16T13:46:28.008Z"
}